{
  "_format": "hh-sol-artifact-1",
  "contractName": "Identi",
  "sourceName": "contracts/identi.sol",
  "abi": [
    {
      "inputs": [
        {
          "internalType": "string",
          "name": "_username",
          "type": "string"
        },
        {
          "components": [
            {
              "internalType": "string",
              "name": "firstName",
              "type": "string"
            },
            {
              "internalType": "string",
              "name": "lastName",
              "type": "string"
            },
            {
              "internalType": "string",
              "name": "email",
              "type": "string"
            },
            {
              "internalType": "string",
              "name": "homeAddress",
              "type": "string"
            },
            {
              "internalType": "string",
              "name": "dateOfBirth",
              "type": "string"
            },
            {
              "internalType": "string",
              "name": "phoneNumber",
              "type": "string"
            }
          ],
          "internalType": "struct Identi.BasicInfo",
          "name": "_basicInfo",
          "type": "tuple"
        },
        {
          "components": [
            {
              "internalType": "string",
              "name": "education",
              "type": "string"
            },
            {
              "internalType": "string",
              "name": "workHistory",
              "type": "string"
            },
            {
              "internalType": "string",
              "name": "jobTitle",
              "type": "string"
            },
            {
              "internalType": "string",
              "name": "info",
              "type": "string"
            },
            {
              "internalType": "string[]",
              "name": "skills",
              "type": "string[]"
            },
            {
              "internalType": "string",
              "name": "imageURL",
              "type": "string"
            }
          ],
          "internalType": "struct Identi.ProfessionalInfo",
          "name": "_professionalInfo",
          "type": "tuple"
        },
        {
          "components": [
            {
              "internalType": "string",
              "name": "x",
              "type": "string"
            },
            {
              "internalType": "string",
              "name": "instagram",
              "type": "string"
            },
            {
              "internalType": "string",
              "name": "tiktok",
              "type": "string"
            },
            {
              "internalType": "string",
              "name": "youtube",
              "type": "string"
            },
            {
              "internalType": "string",
              "name": "linkedin",
              "type": "string"
            }
          ],
          "internalType": "struct Identi.SocialLinks",
          "name": "_socialLinks",
          "type": "tuple"
        },
        {
          "components": [
            {
              "internalType": "bool",
              "name": "education",
              "type": "bool"
            },
            {
              "internalType": "bool",
              "name": "workHistory",
              "type": "bool"
            },
            {
              "internalType": "bool",
              "name": "phoneNumber",
              "type": "bool"
            },
            {
              "internalType": "bool",
              "name": "homeAddress",
              "type": "bool"
            },
            {
              "internalType": "bool",
              "name": "dateOfBirth",
              "type": "bool"
            }
          ],
          "internalType": "struct Identi.Visibility",
          "name": "_visibility",
          "type": "tuple"
        }
      ],
      "name": "createUser",
      "outputs": [],
      "stateMutability": "nonpayable",
      "type": "function"
    },
    {
      "inputs": [
        {
          "internalType": "string",
          "name": "_username",
          "type": "string"
        },
        {
          "components": [
            {
              "internalType": "string",
              "name": "firstName",
              "type": "string"
            },
            {
              "internalType": "string",
              "name": "lastName",
              "type": "string"
            },
            {
              "internalType": "string",
              "name": "email",
              "type": "string"
            },
            {
              "internalType": "string",
              "name": "homeAddress",
              "type": "string"
            },
            {
              "internalType": "string",
              "name": "dateOfBirth",
              "type": "string"
            },
            {
              "internalType": "string",
              "name": "phoneNumber",
              "type": "string"
            }
          ],
          "internalType": "struct Identi.BasicInfo",
          "name": "_basicInfo",
          "type": "tuple"
        },
        {
          "components": [
            {
              "internalType": "string",
              "name": "education",
              "type": "string"
            },
            {
              "internalType": "string",
              "name": "workHistory",
              "type": "string"
            },
            {
              "internalType": "string",
              "name": "jobTitle",
              "type": "string"
            },
            {
              "internalType": "string",
              "name": "info",
              "type": "string"
            },
            {
              "internalType": "string[]",
              "name": "skills",
              "type": "string[]"
            },
            {
              "internalType": "string",
              "name": "imageURL",
              "type": "string"
            }
          ],
          "internalType": "struct Identi.ProfessionalInfo",
          "name": "_professionalInfo",
          "type": "tuple"
        },
        {
          "components": [
            {
              "internalType": "string",
              "name": "x",
              "type": "string"
            },
            {
              "internalType": "string",
              "name": "instagram",
              "type": "string"
            },
            {
              "internalType": "string",
              "name": "tiktok",
              "type": "string"
            },
            {
              "internalType": "string",
              "name": "youtube",
              "type": "string"
            },
            {
              "internalType": "string",
              "name": "linkedin",
              "type": "string"
            }
          ],
          "internalType": "struct Identi.SocialLinks",
          "name": "_socialLinks",
          "type": "tuple"
        },
        {
          "components": [
            {
              "internalType": "bool",
              "name": "education",
              "type": "bool"
            },
            {
              "internalType": "bool",
              "name": "workHistory",
              "type": "bool"
            },
            {
              "internalType": "bool",
              "name": "phoneNumber",
              "type": "bool"
            },
            {
              "internalType": "bool",
              "name": "homeAddress",
              "type": "bool"
            },
            {
              "internalType": "bool",
              "name": "dateOfBirth",
              "type": "bool"
            }
          ],
          "internalType": "struct Identi.Visibility",
          "name": "_visibility",
          "type": "tuple"
        }
      ],
      "name": "editUser",
      "outputs": [],
      "stateMutability": "nonpayable",
      "type": "function"
    },
    {
      "inputs": [
        {
          "internalType": "address",
          "name": "_addr",
          "type": "address"
        }
      ],
      "name": "getUserByAddr",
      "outputs": [
        {
          "components": [
            {
              "internalType": "string",
              "name": "firstName",
              "type": "string"
            },
            {
              "internalType": "string",
              "name": "lastName",
              "type": "string"
            },
            {
              "internalType": "string",
              "name": "email",
              "type": "string"
            },
            {
              "internalType": "string",
              "name": "homeAddress",
              "type": "string"
            },
            {
              "internalType": "string",
              "name": "dateOfBirth",
              "type": "string"
            },
            {
              "internalType": "string",
              "name": "phoneNumber",
              "type": "string"
            }
          ],
          "internalType": "struct Identi.BasicInfo",
          "name": "basicInfo",
          "type": "tuple"
        },
        {
          "components": [
            {
              "internalType": "string",
              "name": "education",
              "type": "string"
            },
            {
              "internalType": "string",
              "name": "workHistory",
              "type": "string"
            },
            {
              "internalType": "string",
              "name": "jobTitle",
              "type": "string"
            },
            {
              "internalType": "string",
              "name": "info",
              "type": "string"
            },
            {
              "internalType": "string[]",
              "name": "skills",
              "type": "string[]"
            },
            {
              "internalType": "string",
              "name": "imageURL",
              "type": "string"
            }
          ],
          "internalType": "struct Identi.ProfessionalInfo",
          "name": "professionalInfo",
          "type": "tuple"
        },
        {
          "components": [
            {
              "internalType": "string",
              "name": "x",
              "type": "string"
            },
            {
              "internalType": "string",
              "name": "instagram",
              "type": "string"
            },
            {
              "internalType": "string",
              "name": "tiktok",
              "type": "string"
            },
            {
              "internalType": "string",
              "name": "youtube",
              "type": "string"
            },
            {
              "internalType": "string",
              "name": "linkedin",
              "type": "string"
            }
          ],
          "internalType": "struct Identi.SocialLinks",
          "name": "socialLinks",
          "type": "tuple"
        },
        {
          "components": [
            {
              "internalType": "bool",
              "name": "education",
              "type": "bool"
            },
            {
              "internalType": "bool",
              "name": "workHistory",
              "type": "bool"
            },
            {
              "internalType": "bool",
              "name": "phoneNumber",
              "type": "bool"
            },
            {
              "internalType": "bool",
              "name": "homeAddress",
              "type": "bool"
            },
            {
              "internalType": "bool",
              "name": "dateOfBirth",
              "type": "bool"
            }
          ],
          "internalType": "struct Identi.Visibility",
          "name": "visibility",
          "type": "tuple"
        }
      ],
      "stateMutability": "view",
      "type": "function"
    },
    {
      "inputs": [
        {
          "internalType": "string",
          "name": "_username",
          "type": "string"
        }
      ],
      "name": "getUserByUsername",
      "outputs": [
        {
          "components": [
            {
              "internalType": "string",
              "name": "firstName",
              "type": "string"
            },
            {
              "internalType": "string",
              "name": "lastName",
              "type": "string"
            },
            {
              "internalType": "string",
              "name": "email",
              "type": "string"
            },
            {
              "internalType": "string",
              "name": "homeAddress",
              "type": "string"
            },
            {
              "internalType": "string",
              "name": "dateOfBirth",
              "type": "string"
            },
            {
              "internalType": "string",
              "name": "phoneNumber",
              "type": "string"
            }
          ],
          "internalType": "struct Identi.BasicInfo",
          "name": "basicInfo",
          "type": "tuple"
        },
        {
          "components": [
            {
              "internalType": "string",
              "name": "education",
              "type": "string"
            },
            {
              "internalType": "string",
              "name": "workHistory",
              "type": "string"
            },
            {
              "internalType": "string",
              "name": "jobTitle",
              "type": "string"
            },
            {
              "internalType": "string",
              "name": "info",
              "type": "string"
            },
            {
              "internalType": "string[]",
              "name": "skills",
              "type": "string[]"
            },
            {
              "internalType": "string",
              "name": "imageURL",
              "type": "string"
            }
          ],
          "internalType": "struct Identi.ProfessionalInfo",
          "name": "professionalInfo",
          "type": "tuple"
        },
        {
          "components": [
            {
              "internalType": "string",
              "name": "x",
              "type": "string"
            },
            {
              "internalType": "string",
              "name": "instagram",
              "type": "string"
            },
            {
              "internalType": "string",
              "name": "tiktok",
              "type": "string"
            },
            {
              "internalType": "string",
              "name": "youtube",
              "type": "string"
            },
            {
              "internalType": "string",
              "name": "linkedin",
              "type": "string"
            }
          ],
          "internalType": "struct Identi.SocialLinks",
          "name": "socialLinks",
          "type": "tuple"
        },
        {
          "components": [
            {
              "internalType": "bool",
              "name": "education",
              "type": "bool"
            },
            {
              "internalType": "bool",
              "name": "workHistory",
              "type": "bool"
            },
            {
              "internalType": "bool",
              "name": "phoneNumber",
              "type": "bool"
            },
            {
              "internalType": "bool",
              "name": "homeAddress",
              "type": "bool"
            },
            {
              "internalType": "bool",
              "name": "dateOfBirth",
              "type": "bool"
            }
          ],
          "internalType": "struct Identi.Visibility",
          "name": "visibility",
          "type": "tuple"
        }
      ],
      "stateMutability": "view",
      "type": "function"
    },
    {
      "inputs": [
        {
          "internalType": "string",
          "name": "_username",
          "type": "string"
        }
      ],
      "name": "getVisibility",
      "outputs": [
        {
          "components": [
            {
              "internalType": "bool",
              "name": "education",
              "type": "bool"
            },
            {
              "internalType": "bool",
              "name": "workHistory",
              "type": "bool"
            },
            {
              "internalType": "bool",
              "name": "phoneNumber",
              "type": "bool"
            },
            {
              "internalType": "bool",
              "name": "homeAddress",
              "type": "bool"
            },
            {
              "internalType": "bool",
              "name": "dateOfBirth",
              "type": "bool"
            }
          ],
          "internalType": "struct Identi.Visibility",
          "name": "",
          "type": "tuple"
        }
      ],
      "stateMutability": "view",
      "type": "function"
    },
    {
      "inputs": [
        {
          "internalType": "string",
          "name": "_username",
          "type": "string"
        },
        {
          "internalType": "bool",
          "name": "education",
          "type": "bool"
        },
        {
          "internalType": "bool",
          "name": "workHistory",
          "type": "bool"
        },
        {
          "internalType": "bool",
          "name": "phoneNumber",
          "type": "bool"
        },
        {
          "internalType": "bool",
          "name": "homeAddress",
          "type": "bool"
        },
        {
          "internalType": "bool",
          "name": "dateOfBirth",
          "type": "bool"
        }
      ],
      "name": "setVisibility",
      "outputs": [],
      "stateMutability": "nonpayable",
      "type": "function"
    }
  ],
  "bytecode": "0x6080604052348015600f57600080fd5b50612bed8061001f6000396000f3fe608060405234801561001057600080fd5b50600436106100625760003560e01c8063320ba8f7146100675780639f42af6314610097578063bb6228b0146100ca578063d1577cac146100e6578063f16e4e4614610102578063f86a29c714610135575b600080fd5b610081600480360381019061007c9190611a90565b610151565b60405161008e9190611b5c565b60405180910390f35b6100b160048036038101906100ac9190611a90565b610285565b6040516100c19493929190611ea2565b60405180910390f35b6100e460048036038101906100df919061244d565b610ded565b005b61010060048036038101906100fb9190612539565b61115a565b005b61011c60048036038101906101179190612640565b61132a565b60405161012c9493929190611ea2565b60405180910390f35b61014f600480360381019061014a919061244d565b61142f565b005b610159611788565b8160028160405161016a91906126a9565b908152602001604051809103902060009054906101000a900460ff166101c5576040517f08c379a00000000000000000000000000000000000000000000000000000000081526004016101bc9061271d565b60405180910390fd5b600080846040516101d691906126a9565b90815260200160405180910390209050806014016040518060a00160405290816000820160009054906101000a900460ff161515151581526020016000820160019054906101000a900460ff161515151581526020016000820160029054906101000a900460ff161515151581526020016000820160039054906101000a900460ff161515151581526020016000820160049054906101000a900460ff16151515158152505092505050919050565b61028d6117c1565b6102956117f7565b61029d61182d565b6102a5611788565b846002816040516102b691906126a9565b908152602001604051809103902060009054906101000a900460ff16610311576040517f08c379a00000000000000000000000000000000000000000000000000000000081526004016103089061271d565b60405180910390fd5b6000808760405161032291906126a9565b908152602001604051809103902090506040518060c0016040528082600001805461034c9061276c565b80601f01602080910402602001604051908101604052809291908181526020018280546103789061276c565b80156103c55780601f1061039a576101008083540402835291602001916103c5565b820191906000526020600020905b8154815290600101906020018083116103a857829003601f168201915b505050505081526020018260010180546103de9061276c565b80601f016020809104026020016040519081016040528092919081815260200182805461040a9061276c565b80156104575780601f1061042c57610100808354040283529160200191610457565b820191906000526020600020905b81548152906001019060200180831161043a57829003601f168201915b505050505081526020018260030180546104709061276c565b80601f016020809104026020016040519081016040528092919081815260200182805461049c9061276c565b80156104e95780601f106104be576101008083540402835291602001916104e9565b820191906000526020600020905b8154815290600101906020018083116104cc57829003601f168201915b505050505081526020018260040180546105029061276c565b80601f016020809104026020016040519081016040528092919081815260200182805461052e9061276c565b801561057b5780601f106105505761010080835404028352916020019161057b565b820191906000526020600020905b81548152906001019060200180831161055e57829003601f168201915b505050505081526020018260050180546105949061276c565b80601f01602080910402602001604051908101604052809291908181526020018280546105c09061276c565b801561060d5780601f106105e25761010080835404028352916020019161060d565b820191906000526020600020905b8154815290600101906020018083116105f057829003601f168201915b505050505081526020018260080180546106269061276c565b80601f01602080910402602001604051908101604052809291908181526020018280546106529061276c565b801561069f5780601f106106745761010080835404028352916020019161069f565b820191906000526020600020905b81548152906001019060200180831161068257829003601f168201915b505050505081525095506040518060c001604052808260060180546106c39061276c565b80601f01602080910402602001604051908101604052809291908181526020018280546106ef9061276c565b801561073c5780601f106107115761010080835404028352916020019161073c565b820191906000526020600020905b81548152906001019060200180831161071f57829003601f168201915b505050505081526020018260070180546107559061276c565b80601f01602080910402602001604051908101604052809291908181526020018280546107819061276c565b80156107ce5780601f106107a3576101008083540402835291602001916107ce565b820191906000526020600020905b8154815290600101906020018083116107b157829003601f168201915b505050505081526020018260090180546107e79061276c565b80601f01602080910402602001604051908101604052809291908181526020018280546108139061276c565b80156108605780601f1061083557610100808354040283529160200191610860565b820191906000526020600020905b81548152906001019060200180831161084357829003601f168201915b5050505050815260200182600f0180546108799061276c565b80601f01602080910402602001604051908101604052809291908181526020018280546108a59061276c565b80156108f25780601f106108c7576101008083540402835291602001916108f2565b820191906000526020600020905b8154815290600101906020018083116108d557829003601f168201915b5050505050815260200182601001805480602002602001604051908101604052809291908181526020016000905b828210156109cc57838290600052602060002001805461093f9061276c565b80601f016020809104026020016040519081016040528092919081815260200182805461096b9061276c565b80156109b85780601f1061098d576101008083540402835291602001916109b8565b820191906000526020600020905b81548152906001019060200180831161099b57829003601f168201915b505050505081526020019060010190610920565b5050505081526020018260110180546109e49061276c565b80601f0160208091040260200160405190810160405280929190818152602001828054610a109061276c565b8015610a5d5780601f10610a3257610100808354040283529160200191610a5d565b820191906000526020600020905b815481529060010190602001808311610a4057829003601f168201915b505050505081525094506040518060a0016040528082600a018054610a819061276c565b80601f0160208091040260200160405190810160405280929190818152602001828054610aad9061276c565b8015610afa5780601f10610acf57610100808354040283529160200191610afa565b820191906000526020600020905b815481529060010190602001808311610add57829003601f168201915b5050505050815260200182600b018054610b139061276c565b80601f0160208091040260200160405190810160405280929190818152602001828054610b3f9061276c565b8015610b8c5780601f10610b6157610100808354040283529160200191610b8c565b820191906000526020600020905b815481529060010190602001808311610b6f57829003601f168201915b5050505050815260200182600c018054610ba59061276c565b80601f0160208091040260200160405190810160405280929190818152602001828054610bd19061276c565b8015610c1e5780601f10610bf357610100808354040283529160200191610c1e565b820191906000526020600020905b815481529060010190602001808311610c0157829003601f168201915b5050505050815260200182600d018054610c379061276c565b80601f0160208091040260200160405190810160405280929190818152602001828054610c639061276c565b8015610cb05780601f10610c8557610100808354040283529160200191610cb0565b820191906000526020600020905b815481529060010190602001808311610c9357829003601f168201915b5050505050815260200182600e018054610cc99061276c565b80601f0160208091040260200160405190810160405280929190818152602001828054610cf59061276c565b8015610d425780601f10610d1757610100808354040283529160200191610d42565b820191906000526020600020905b815481529060010190602001808311610d2557829003601f168201915b50505050508152509350806014016040518060a00160405290816000820160009054906101000a900460ff161515151581526020016000820160019054906101000a900460ff161515151581526020016000820160029054906101000a900460ff161515151581526020016000820160039054906101000a900460ff161515151581526020016000820160049054906101000a900460ff161515151581525050925050509193509193565b600285604051610dfd91906126a9565b908152602001604051809103902060009054906101000a900460ff1615610e59576040517f08c379a0000000000000000000000000000000000000000000000000000000008152600401610e50906127e9565b60405180910390fd5b60008086604051610e6a91906126a9565b908152602001604051809103902090508460000151816000019081610e8f91906129bf565b508460200151816001019081610ea591906129bf565b5085816002019081610eb791906129bf565b508460400151816003019081610ecd91906129bf565b508460600151816004019081610ee391906129bf565b508460800151816005019081610ef991906129bf565b508460a00151816008019081610f0f91906129bf565b508360000151816006019081610f2591906129bf565b508360200151816007019081610f3b91906129bf565b508360400151816009019081610f5191906129bf565b50826000015181600a019081610f6791906129bf565b50826020015181600b019081610f7d91906129bf565b50826040015181600c019081610f9391906129bf565b50826060015181600d019081610fa991906129bf565b50826080015181600e019081610fbf91906129bf565b50836060015181600f019081610fd591906129bf565b508360800151816010019080519060200190610ff292919061185c565b508360a0015181601101908161100891906129bf565b5060018160120160006101000a81548160ff021916908315150217905550818160140160008201518160000160006101000a81548160ff02191690831515021790555060208201518160000160016101000a81548160ff02191690831515021790555060408201518160000160026101000a81548160ff02191690831515021790555060608201518160000160036101000a81548160ff02191690831515021790555060808201518160000160046101000a81548160ff02191690831515021790555090505085600160003373ffffffffffffffffffffffffffffffffffffffff1673ffffffffffffffffffffffffffffffffffffffff168152602001908152602001600020908161111a91906129bf565b50600160028760405161112d91906126a9565b908152602001604051809103902060006101000a81548160ff021916908315150217905550505050505050565b8560028160405161116b91906126a9565b908152602001604051809103902060009054906101000a900460ff166111c6576040517f08c379a00000000000000000000000000000000000000000000000000000000081526004016111bd9061271d565b60405180910390fd5b868080519060200120600160003373ffffffffffffffffffffffffffffffffffffffff1673ffffffffffffffffffffffffffffffffffffffff16815260200190815260200160002060405161121b9190612b34565b604051809103902014611263576040517f08c379a000000000000000000000000000000000000000000000000000000000815260040161125a90612b97565b60405180910390fd5b6000808960405161127491906126a9565b90815260200160405180910390209050878160140160000160006101000a81548160ff021916908315150217905550868160140160000160016101000a81548160ff021916908315150217905550858160140160000160026101000a81548160ff021916908315150217905550848160140160000160036101000a81548160ff021916908315150217905550838160140160000160046101000a81548160ff021916908315150217905550505050505050505050565b6113326117c1565b61133a6117f7565b61134261182d565b61134a611788565b6000600160008773ffffffffffffffffffffffffffffffffffffffff1673ffffffffffffffffffffffffffffffffffffffff16815260200190815260200160002080546113969061276c565b80601f01602080910402602001604051908101604052809291908181526020018280546113c29061276c565b801561140f5780601f106113e45761010080835404028352916020019161140f565b820191906000526020600020905b8154815290600101906020018083116113f257829003601f168201915b5050505050905061141f81610285565b9450945094509450509193509193565b8460028160405161144091906126a9565b908152602001604051809103902060009054906101000a900460ff1661149b576040517f08c379a00000000000000000000000000000000000000000000000000000000081526004016114929061271d565b60405180910390fd5b858080519060200120600160003373ffffffffffffffffffffffffffffffffffffffff1673ffffffffffffffffffffffffffffffffffffffff1681526020019081526020016000206040516114f09190612b34565b604051809103902014611538576040517f08c379a000000000000000000000000000000000000000000000000000000000815260040161152f90612b97565b60405180910390fd5b6000808860405161154991906126a9565b90815260200160405180910390209050866000015181600001908161156e91906129bf565b50866020015181600101908161158491906129bf565b50866040015181600301908161159a91906129bf565b5086606001518160040190816115b091906129bf565b5086608001518160050190816115c691906129bf565b508660a001518160080190816115dc91906129bf565b5085600001518160060190816115f291906129bf565b50856020015181600701908161160891906129bf565b50856040015181600901908161161e91906129bf565b50846000015181600a01908161163491906129bf565b50846020015181600b01908161164a91906129bf565b50846040015181600c01908161166091906129bf565b50846060015181600d01908161167691906129bf565b50846080015181600e01908161168c91906129bf565b50856060015181600f0190816116a291906129bf565b5085608001518160100190805190602001906116bf92919061185c565b508560a001518160110190816116d591906129bf565b50838160140160008201518160000160006101000a81548160ff02191690831515021790555060208201518160000160016101000a81548160ff02191690831515021790555060408201518160000160026101000a81548160ff02191690831515021790555060608201518160000160036101000a81548160ff02191690831515021790555060808201518160000160046101000a81548160ff0219169083151502179055509050505050505050505050565b6040518060a001604052806000151581526020016000151581526020016000151581526020016000151581526020016000151581525090565b6040518060c001604052806060815260200160608152602001606081526020016060815260200160608152602001606081525090565b6040518060c001604052806060815260200160608152602001606081526020016060815260200160608152602001606081525090565b6040518060a0016040528060608152602001606081526020016060815260200160608152602001606081525090565b8280548282559060005260206000209081019282156118a4579160200282015b828111156118a357825182908161189391906129bf565b509160200191906001019061187c565b5b5090506118b191906118b5565b5090565b5b808211156118d557600081816118cc91906118d9565b506001016118b6565b5090565b5080546118e59061276c565b6000825580601f106118f75750611916565b601f0160209004906000526020600020908101906119159190611919565b5b50565b5b8082111561193257600081600090555060010161191a565b5090565b6000604051905090565b600080fd5b600080fd5b600080fd5b600080fd5b6000601f19601f8301169050919050565b7f4e487b7100000000000000000000000000000000000000000000000000000000600052604160045260246000fd5b61199d82611954565b810181811067ffffffffffffffff821117156119bc576119bb611965565b5b80604052505050565b60006119cf611936565b90506119db8282611994565b919050565b600067ffffffffffffffff8211156119fb576119fa611965565b5b611a0482611954565b9050602081019050919050565b82818337600083830152505050565b6000611a33611a2e846119e0565b6119c5565b905082815260208101848484011115611a4f57611a4e61194f565b5b611a5a848285611a11565b509392505050565b600082601f830112611a7757611a7661194a565b5b8135611a87848260208601611a20565b91505092915050565b600060208284031215611aa657611aa5611940565b5b600082013567ffffffffffffffff811115611ac457611ac3611945565b5b611ad084828501611a62565b91505092915050565b60008115159050919050565b611aee81611ad9565b82525050565b60a082016000820151611b0a6000850182611ae5565b506020820151611b1d6020850182611ae5565b506040820151611b306040850182611ae5565b506060820151611b436060850182611ae5565b506080820151611b566080850182611ae5565b50505050565b600060a082019050611b716000830184611af4565b92915050565b600081519050919050565b600082825260208201905092915050565b60005b83811015611bb1578082015181840152602081019050611b96565b60008484015250505050565b6000611bc882611b77565b611bd28185611b82565b9350611be2818560208601611b93565b611beb81611954565b840191505092915050565b600060c0830160008301518482036000860152611c138282611bbd565b91505060208301518482036020860152611c2d8282611bbd565b91505060408301518482036040860152611c478282611bbd565b91505060608301518482036060860152611c618282611bbd565b91505060808301518482036080860152611c7b8282611bbd565b91505060a083015184820360a0860152611c958282611bbd565b9150508091505092915050565b600081519050919050565b600082825260208201905092915050565b6000819050602082019050919050565b6000611cda8383611bbd565b905092915050565b6000602082019050919050565b6000611cfa82611ca2565b611d048185611cad565b935083602082028501611d1685611cbe565b8060005b85811015611d525784840389528151611d338582611cce565b9450611d3e83611ce2565b925060208a01995050600181019050611d1a565b50829750879550505050505092915050565b600060c0830160008301518482036000860152611d818282611bbd565b91505060208301518482036020860152611d9b8282611bbd565b91505060408301518482036040860152611db58282611bbd565b91505060608301518482036060860152611dcf8282611bbd565b91505060808301518482036080860152611de98282611cef565b91505060a083015184820360a0860152611e038282611bbd565b9150508091505092915050565b600060a0830160008301518482036000860152611e2d8282611bbd565b91505060208301518482036020860152611e478282611bbd565b91505060408301518482036040860152611e618282611bbd565b91505060608301518482036060860152611e7b8282611bbd565b91505060808301518482036080860152611e958282611bbd565b9150508091505092915050565b6000610100820190508181036000830152611ebd8187611bf6565b90508181036020830152611ed18186611d64565b90508181036040830152611ee58185611e10565b9050611ef46060830184611af4565b95945050505050565b600080fd5b600080fd5b600060c08284031215611f1d57611f1c611efd565b5b611f2760c06119c5565b9050600082013567ffffffffffffffff811115611f4757611f46611f02565b5b611f5384828501611a62565b600083015250602082013567ffffffffffffffff811115611f7757611f76611f02565b5b611f8384828501611a62565b602083015250604082013567ffffffffffffffff811115611fa757611fa6611f02565b5b611fb384828501611a62565b604083015250606082013567ffffffffffffffff811115611fd757611fd6611f02565b5b611fe384828501611a62565b606083015250608082013567ffffffffffffffff81111561200757612006611f02565b5b61201384828501611a62565b60808301525060a082013567ffffffffffffffff81111561203757612036611f02565b5b61204384828501611a62565b60a08301525092915050565b600067ffffffffffffffff82111561206a57612069611965565b5b602082029050602081019050919050565b600080fd5b600061209361208e8461204f565b6119c5565b905080838252602082019050602084028301858111156120b6576120b561207b565b5b835b818110156120fd57803567ffffffffffffffff8111156120db576120da61194a565b5b8086016120e88982611a62565b855260208501945050506020810190506120b8565b5050509392505050565b600082601f83011261211c5761211b61194a565b5b813561212c848260208601612080565b91505092915050565b600060c0828403121561214b5761214a611efd565b5b61215560c06119c5565b9050600082013567ffffffffffffffff81111561217557612174611f02565b5b61218184828501611a62565b600083015250602082013567ffffffffffffffff8111156121a5576121a4611f02565b5b6121b184828501611a62565b602083015250604082013567ffffffffffffffff8111156121d5576121d4611f02565b5b6121e184828501611a62565b604083015250606082013567ffffffffffffffff81111561220557612204611f02565b5b61221184828501611a62565b606083015250608082013567ffffffffffffffff81111561223557612234611f02565b5b61224184828501612107565b60808301525060a082013567ffffffffffffffff81111561226557612264611f02565b5b61227184828501611a62565b60a08301525092915050565b600060a0828403121561229357612292611efd565b5b61229d60a06119c5565b9050600082013567ffffffffffffffff8111156122bd576122bc611f02565b5b6122c984828501611a62565b600083015250602082013567ffffffffffffffff8111156122ed576122ec611f02565b5b6122f984828501611a62565b602083015250604082013567ffffffffffffffff81111561231d5761231c611f02565b5b61232984828501611a62565b604083015250606082013567ffffffffffffffff81111561234d5761234c611f02565b5b61235984828501611a62565b606083015250608082013567ffffffffffffffff81111561237d5761237c611f02565b5b61238984828501611a62565b60808301525092915050565b61239e81611ad9565b81146123a957600080fd5b50565b6000813590506123bb81612395565b92915050565b600060a082840312156123d7576123d6611efd565b5b6123e160a06119c5565b905060006123f1848285016123ac565b6000830152506020612405848285016123ac565b6020830152506040612419848285016123ac565b604083015250606061242d848285016123ac565b6060830152506080612441848285016123ac565b60808301525092915050565b6000806000806000610120868803121561246a57612469611940565b5b600086013567ffffffffffffffff81111561248857612487611945565b5b61249488828901611a62565b955050602086013567ffffffffffffffff8111156124b5576124b4611945565b5b6124c188828901611f07565b945050604086013567ffffffffffffffff8111156124e2576124e1611945565b5b6124ee88828901612135565b935050606086013567ffffffffffffffff81111561250f5761250e611945565b5b61251b8882890161227d565b925050608061252c888289016123c1565b9150509295509295909350565b60008060008060008060c0878903121561255657612555611940565b5b600087013567ffffffffffffffff81111561257457612573611945565b5b61258089828a01611a62565b965050602061259189828a016123ac565b95505060406125a289828a016123ac565b94505060606125b389828a016123ac565b93505060806125c489828a016123ac565b92505060a06125d589828a016123ac565b9150509295509295509295565b600073ffffffffffffffffffffffffffffffffffffffff82169050919050565b600061260d826125e2565b9050919050565b61261d81612602565b811461262857600080fd5b50565b60008135905061263a81612614565b92915050565b60006020828403121561265657612655611940565b5b60006126648482850161262b565b91505092915050565b600081905092915050565b600061268382611b77565b61268d818561266d565b935061269d818560208601611b93565b80840191505092915050565b60006126b58284612678565b915081905092915050565b600082825260208201905092915050565b7f5573657220646f6573206e6f742065786973742e000000000000000000000000600082015250565b60006127076014836126c0565b9150612712826126d1565b602082019050919050565b60006020820190508181036000830152612736816126fa565b9050919050565b7f4e487b7100000000000000000000000000000000000000000000000000000000600052602260045260246000fd5b6000600282049050600182168061278457607f821691505b6020821081036127975761279661273d565b5b50919050565b7f557365726e616d6520616c7265616479206578697374732e0000000000000000600082015250565b60006127d36018836126c0565b91506127de8261279d565b602082019050919050565b60006020820190508181036000830152612802816127c6565b9050919050565b60008190508160005260206000209050919050565b60006020601f8301049050919050565b600082821b905092915050565b60006008830261286b7fffffffffffffffffffffffffffffffffffffffffffffffffffffffffffffffff8261282e565b612875868361282e565b95508019841693508086168417925050509392505050565b6000819050919050565b6000819050919050565b60006128bc6128b76128b28461288d565b612897565b61288d565b9050919050565b6000819050919050565b6128d6836128a1565b6128ea6128e2826128c3565b84845461283b565b825550505050565b600090565b6128ff6128f2565b61290a8184846128cd565b505050565b5b8181101561292e576129236000826128f7565b600181019050612910565b5050565b601f8211156129735761294481612809565b61294d8461281e565b8101602085101561295c578190505b6129706129688561281e565b83018261290f565b50505b505050565b600082821c905092915050565b600061299660001984600802612978565b1980831691505092915050565b60006129af8383612985565b9150826002028217905092915050565b6129c882611b77565b67ffffffffffffffff8111156129e1576129e0611965565b5b6129eb825461276c565b6129f6828285612932565b600060209050601f831160018114612a295760008415612a17578287015190505b612a2185826129a3565b865550612a89565b601f198416612a3786612809565b60005b82811015612a5f57848901518255600182019150602085019450602081019050612a3a565b86831015612a7c5784890151612a78601f891682612985565b8355505b6001600288020188555050505b505050505050565b600081905092915050565b60008190508160005260206000209050919050565b60008154612abe8161276c565b612ac88186612a91565b94506001821660008114612ae35760018114612af857612b2b565b60ff1983168652811515820286019350612b2b565b612b0185612a9c565b60005b83811015612b2357815481890152600182019150602081019050612b04565b838801955050505b50505092915050565b6000612b408284612ab1565b915081905092915050565b7f4e6f7420746865206f776e6572206f6620746869732070726f66696c65000000600082015250565b6000612b81601d836126c0565b9150612b8c82612b4b565b602082019050919050565b60006020820190508181036000830152612bb081612b74565b905091905056fea2646970667358221220c708cf688153dff69111f34b176652bc8b784fa0bcc7267b6a0abc9b57fe5b9b64736f6c634300081c0033",
  "linkReferences": {},
  "deployedLinkReferences": {}
}